{
  "address": "0xbc12f6DbCFa8D8090341257F98D5F143312f08DB",
  "abi": [
    {
      "inputs": [
        {
          "internalType": "address",
          "name": "_governance",
          "type": "address"
        }
      ],
      "stateMutability": "nonpayable",
      "type": "constructor"
    },
    {
      "inputs": [],
      "name": "NoGovernanceZeroAddress",
      "type": "error"
    },
    {
      "inputs": [],
      "name": "OnlyGovernance",
      "type": "error"
    },
    {
      "inputs": [],
      "name": "OnlyPendingGovernance",
      "type": "error"
    },
    {
      "inputs": [],
      "name": "WrongLengthAmounts",
      "type": "error"
    },
    {
      "inputs": [],
      "name": "ZeroAddress",
      "type": "error"
    },
    {
      "anonymous": false,
      "inputs": [
        {
          "indexed": true,
          "internalType": "address",
          "name": "token",
          "type": "address"
        },
        {
          "indexed": true,
          "internalType": "address",
          "name": "beneficiary",
          "type": "address"
        },
        {
          "indexed": false,
          "internalType": "uint256",
          "name": "amount",
          "type": "uint256"
        },
        {
          "indexed": false,
          "internalType": "uint256",
          "name": "startDate",
          "type": "uint256"
        },
        {
          "indexed": false,
          "internalType": "uint256",
          "name": "releaseDate",
          "type": "uint256"
        }
      ],
      "name": "BenefitAdded",
      "type": "event"
    },
    {
      "anonymous": false,
      "inputs": [
        {
          "indexed": true,
          "internalType": "address",
          "name": "token",
          "type": "address"
        },
        {
          "indexed": true,
          "internalType": "address",
          "name": "beneficiary",
          "type": "address"
        },
        {
          "indexed": false,
          "internalType": "uint256",
          "name": "releasedAmount",
          "type": "uint256"
        }
      ],
      "name": "BenefitReleased",
      "type": "event"
    },
    {
      "anonymous": false,
      "inputs": [
        {
          "indexed": true,
          "internalType": "address",
          "name": "token",
          "type": "address"
        },
        {
          "indexed": true,
          "internalType": "address",
          "name": "beneficiary",
          "type": "address"
        },
        {
          "indexed": false,
          "internalType": "uint256",
          "name": "removedAmount",
          "type": "uint256"
        }
      ],
      "name": "BenefitRemoved",
      "type": "event"
    },
    {
      "anonymous": false,
      "inputs": [
        {
          "indexed": false,
          "internalType": "address",
          "name": "_token",
          "type": "address"
        },
        {
          "indexed": false,
          "internalType": "uint256",
          "name": "_amount",
          "type": "uint256"
        },
        {
          "indexed": false,
          "internalType": "address",
          "name": "_to",
          "type": "address"
        }
      ],
      "name": "DustSent",
      "type": "event"
    },
    {
      "anonymous": false,
      "inputs": [
        {
          "indexed": false,
          "internalType": "address",
          "name": "_pendingGovernance",
          "type": "address"
        }
      ],
      "name": "GovernanceProposal",
      "type": "event"
    },
    {
      "anonymous": false,
      "inputs": [
        {
          "indexed": false,
          "internalType": "address",
          "name": "_governance",
          "type": "address"
        }
      ],
      "name": "GovernanceSet",
      "type": "event"
    },
    {
      "inputs": [],
      "name": "acceptGovernance",
      "outputs": [],
      "stateMutability": "nonpayable",
      "type": "function"
    },
    {
      "inputs": [
        {
          "internalType": "address",
          "name": "_beneficiary",
          "type": "address"
        },
        {
          "internalType": "uint256",
          "name": "_startDate",
          "type": "uint256"
        },
        {
          "internalType": "uint256",
          "name": "_duration",
          "type": "uint256"
        },
        {
          "internalType": "address",
          "name": "_token",
          "type": "address"
        },
        {
          "internalType": "uint256",
          "name": "_amount",
          "type": "uint256"
        }
      ],
      "name": "addBenefit",
      "outputs": [],
      "stateMutability": "nonpayable",
      "type": "function"
    },
    {
      "inputs": [
        {
          "internalType": "address",
          "name": "_token",
          "type": "address"
        },
        {
          "internalType": "address[]",
          "name": "__beneficiaries",
          "type": "address[]"
        },
        {
          "internalType": "uint256[]",
          "name": "_amounts",
          "type": "uint256[]"
        },
        {
          "internalType": "uint256",
          "name": "_startDate",
          "type": "uint256"
        },
        {
          "internalType": "uint256",
          "name": "_duration",
          "type": "uint256"
        }
      ],
      "name": "addBenefits",
      "outputs": [],
      "stateMutability": "nonpayable",
      "type": "function"
    },
    {
      "inputs": [
        {
          "internalType": "address",
          "name": "",
          "type": "address"
        },
        {
          "internalType": "address",
          "name": "",
          "type": "address"
        }
      ],
      "name": "benefits",
      "outputs": [
        {
          "internalType": "uint256",
          "name": "amount",
          "type": "uint256"
        },
        {
          "internalType": "uint256",
          "name": "startDate",
          "type": "uint256"
        },
        {
          "internalType": "uint256",
          "name": "duration",
          "type": "uint256"
        },
        {
          "internalType": "uint256",
          "name": "released",
          "type": "uint256"
        }
      ],
      "stateMutability": "view",
      "type": "function"
    },
    {
      "inputs": [],
      "name": "getBeneficiaries",
      "outputs": [
        {
          "internalType": "address[]",
          "name": "",
          "type": "address[]"
        }
      ],
      "stateMutability": "view",
      "type": "function"
    },
    {
      "inputs": [],
      "name": "getTokens",
      "outputs": [
        {
          "internalType": "address[]",
          "name": "",
          "type": "address[]"
        }
      ],
      "stateMutability": "view",
      "type": "function"
    },
    {
      "inputs": [
        {
          "internalType": "address",
          "name": "_beneficiary",
          "type": "address"
        }
      ],
      "name": "getTokensOf",
      "outputs": [
        {
          "internalType": "address[]",
          "name": "",
          "type": "address[]"
        }
      ],
      "stateMutability": "view",
      "type": "function"
    },
    {
      "inputs": [],
      "name": "governance",
      "outputs": [
        {
          "internalType": "address",
          "name": "",
          "type": "address"
        }
      ],
      "stateMutability": "view",
      "type": "function"
    },
    {
      "inputs": [],
      "name": "pendingGovernance",
      "outputs": [
        {
          "internalType": "address",
          "name": "",
          "type": "address"
        }
      ],
      "stateMutability": "view",
      "type": "function"
    },
    {
      "inputs": [
        {
          "internalType": "address",
          "name": "_token",
          "type": "address"
        },
        {
          "internalType": "address",
          "name": "_beneficiary",
          "type": "address"
        }
      ],
      "name": "releasableAmount",
      "outputs": [
        {
          "internalType": "uint256",
          "name": "",
          "type": "uint256"
        }
      ],
      "stateMutability": "view",
      "type": "function"
    },
    {
      "inputs": [
        {
          "internalType": "address",
          "name": "_token",
          "type": "address"
        }
      ],
      "name": "release",
      "outputs": [],
      "stateMutability": "nonpayable",
      "type": "function"
    },
    {
      "inputs": [
        {
          "internalType": "address",
          "name": "_token",
          "type": "address"
        },
        {
          "internalType": "address",
          "name": "_beneficiary",
          "type": "address"
        }
      ],
      "name": "release",
      "outputs": [],
      "stateMutability": "nonpayable",
      "type": "function"
    },
    {
      "inputs": [
        {
          "internalType": "address[]",
          "name": "_tokens",
          "type": "address[]"
        },
        {
          "internalType": "address",
          "name": "_beneficiary",
          "type": "address"
        }
      ],
      "name": "release",
      "outputs": [],
      "stateMutability": "nonpayable",
      "type": "function"
    },
    {
      "inputs": [
        {
          "internalType": "address[]",
          "name": "_tokens",
          "type": "address[]"
        }
      ],
      "name": "release",
      "outputs": [],
      "stateMutability": "nonpayable",
      "type": "function"
    },
    {
      "inputs": [
        {
          "internalType": "address",
          "name": "_beneficiary",
          "type": "address"
        }
      ],
      "name": "releaseAll",
      "outputs": [],
      "stateMutability": "nonpayable",
      "type": "function"
    },
    {
      "inputs": [],
      "name": "releaseAll",
      "outputs": [],
      "stateMutability": "nonpayable",
      "type": "function"
    },
    {
      "inputs": [
        {
          "internalType": "address",
          "name": "_token",
          "type": "address"
        },
        {
          "internalType": "address",
          "name": "_beneficiary",
          "type": "address"
        }
      ],
      "name": "releaseDate",
      "outputs": [
        {
          "internalType": "uint256",
          "name": "",
          "type": "uint256"
        }
      ],
      "stateMutability": "view",
      "type": "function"
    },
    {
      "inputs": [
        {
          "internalType": "address",
          "name": "_beneficiary",
          "type": "address"
        }
      ],
      "name": "removeBeneficiary",
      "outputs": [],
      "stateMutability": "nonpayable",
      "type": "function"
    },
    {
      "inputs": [
        {
          "internalType": "address",
          "name": "_token",
          "type": "address"
        },
        {
          "internalType": "address",
          "name": "_beneficiary",
          "type": "address"
        }
      ],
      "name": "removeBenefit",
      "outputs": [],
      "stateMutability": "nonpayable",
      "type": "function"
    },
    {
      "inputs": [
        {
          "internalType": "address",
          "name": "_token",
          "type": "address"
        }
      ],
      "name": "sendDust",
      "outputs": [],
      "stateMutability": "nonpayable",
      "type": "function"
    },
    {
      "inputs": [
        {
          "internalType": "address",
          "name": "_governance",
          "type": "address"
        }
      ],
      "name": "setGovernance",
      "outputs": [],
      "stateMutability": "nonpayable",
      "type": "function"
    },
    {
      "inputs": [
        {
          "internalType": "address",
          "name": "",
          "type": "address"
        }
      ],
      "name": "totalAmountPerToken",
      "outputs": [
        {
          "internalType": "uint256",
          "name": "",
          "type": "uint256"
        }
      ],
      "stateMutability": "view",
      "type": "function"
    }
  ],
  "transactionHash": "0x5ef00f1d660c3c1fb7180bbce1ce12dd8fb415842a5c9a25186b5807499d101d",
  "args": [
    "0x7D4BF49D39374BdDeB2aa70511c2b772a0Bcf91e"
  ],
  "solcInputHash": "b60c98f4a599b8f9195d90b1ba21fbbe",
  "bytecode": "0x608060405234801561001057600080fd5b5060405161187138038061187183398101604081905261002f9161007c565b806001600160a01b0381166100565760405162b293ed60e81b815260040160405180910390fd5b600080546001600160a01b0319166001600160a01b0392909216919091179055506100ac565b60006020828403121561008e57600080fd5b81516001600160a01b03811681146100a557600080fd5b9392505050565b6117b6806100bb6000396000f3fe608060405234801561001057600080fd5b50600436106101425760003560e01c8063913b722c116100b8578063b8df2a1b1161007c578063b8df2a1b14610289578063bac9556d1461029c578063d402b4d4146102af578063df5da966146102c2578063f39c38a0146102e2578063fd1ccc42146102f557600080fd5b8063913b722c14610240578063a7d092b214610248578063aa6ca8081461025b578063ab033ea914610263578063b4e862351461027657600080fd5b8063550e5ac11161010a578063550e5ac1146101b3578063580fc80a146101c657806359633a1c146101d95780635aa6e675146101ec5780635be7fde8146102175780637243cfbb1461021f57600080fd5b80630986b210146101475780631916558714610170578063238efcbc14610185578063368090481461018d57806348b75044146101a0575b600080fd5b61015a6101553660046113ee565b610355565b6040516101679190611607565b60405180910390f35b61018361017e3660046113ee565b61037f565b005b61018361038c565b61018361019b3660046114cc565b610415565b6101836101ae366004611409565b610497565b6101836101c13660046113ee565b6104a5565b6101836101d43660046113ee565b6105d1565b6101836101e73660046113ee565b6105da565b6000546101ff906001600160a01b031681565b6040516001600160a01b039091168152602001610167565b61018361065d565b61023261022d366004611409565b610668565b604051908152602001610167565b61015a6106de565b61018361025636600461155c565b6106ef565b61015a6106ff565b6101836102713660046113ee565b61070b565b61018361028436600461143c565b61078a565b61018361029736600461151a565b6108b4565b6102326102aa366004611409565b6108bf565b6101836102bd366004611409565b61091e565b6102326102d03660046113ee565b60076020526000908152604090205481565b6001546101ff906001600160a01b031681565b610335610303366004611409565b600860209081526000928352604080842090915290825290208054600182015460028301546003909301549192909184565b604080519485526020850193909352918301526060820152608001610167565b6001600160a01b038116600090815260066020526040902060609061037990610953565b92915050565b6103898133610967565b50565b6001546001600160a01b031633146103b757604051637ef5703160e11b815260040160405180910390fd5b60018054600080546001600160a01b0383166001600160a01b031991821681179092559091169091556040519081527fc73be659241aade67e9a059bcf21494955018b213dbd1179054ccf928b13f3b69060200160405180910390a1565b6000546001600160a01b03163314610440576040516354348f0360e01b815260040160405180910390fd5b61044d8585858585610a9b565b6001600160a01b03821660009081526007602052604081208054839290610475908490611687565b9091555061049090506001600160a01b038316333084610bca565b5050505050565b6104a18282610967565b5050565b6000546001600160a01b031633146104d0576040516354348f0360e01b815260040160405180910390fd5b6001600160a01b0381166000818152600760205260408082205490516370a0823160e01b8152306004820152919290916370a082319060240160206040518083038186803b15801561052157600080fd5b505afa158015610535573d6000803e3d6000fd5b505050506040513d601f19601f8201168201806040525081019061055991906115d2565b61056391906116e0565b600054909150610580906001600160a01b03848116911683610c3b565b600054604080516001600160a01b0385811682526020820185905290921682820152517f9a3055ded8c8b5f21bbf4946c5afab6e1fa8b3f057922658e5e1ade125fb0b1e9181900360600190a15050565b61038981610c6b565b6000546001600160a01b03163314610605576040516354348f0360e01b815260040160405180910390fd5b6001600160a01b038116600090815260066020526040812061062690610cd1565b1115610389576001600160a01b0381166000908152600660205260408120610658916106529190610cdb565b82610ce7565b610605565b61066633610c6b565b565b6001600160a01b0380831660009081526008602090815260408083209385168352928152828220835160808101855281548152600182015492810192909252600281015493820193909352600390920154606083018190529091906106cc82610dc7565b6106d691906116e0565b949350505050565b60606106ea6004610953565b905090565b6106fa838383610e1f565b505050565b60606106ea6002610953565b6000546001600160a01b03163314610736576040516354348f0360e01b815260040160405180910390fd5b600180546001600160a01b0319166001600160a01b0383169081179091556040519081527fe987aaedf9d279143bdf1eee16cf1d0feb47742867d81083df8d6cd0a5ac857f9060200160405180910390a150565b6000546001600160a01b031633146107b5576040516354348f0360e01b815260040160405180910390fd5b848381146107d65760405163c2717c7160e01b815260040160405180910390fd5b6000805b828110156108655761082d8989838181106107f7576107f761176a565b905060200201602081019061080c91906113ee565b86868d8b8b878181106108215761082161176a565b90506020020135610a9b565b86868281811061083f5761083f61176a565b90506020020135826108519190611687565b91508061085d81611723565b9150506107da565b506001600160a01b0389166000908152600760205260408120805483929061088e908490611687565b909155506108a990506001600160a01b038a16333084610bca565b505050505050505050565b6104a1828233610e1f565b6001600160a01b038083166000908152600860209081526040808320938516835292815282822083516080810185528154815260018201549281018390526002820154948101859052600390910154606082015291926106d691611687565b6000546001600160a01b03163314610949576040516354348f0360e01b815260040160405180910390fd5b6104a18282610ce7565b6060600061096083610e6d565b9392505050565b6001600160a01b038083166000908152600860209081526040808320938516835292815282822060038101548451608081018652825481526001830154938101939093526002820154948301949094526060820184905292906109c990610dc7565b6109d391906116e0565b9050806109e05750505050565b808260030160008282546109f49190611687565b90915550506001600160a01b03841660009081526007602052604081208054839290610a219084906116e0565b9091555050815460038301541415610a3d57610a3d8484610ec9565b610a48848483610c3b565b826001600160a01b0316846001600160a01b03167f912d56c6799e46305ea2b933a5c2cee2a5e05c9cf0eb6e7086b53e487eab24da83604051610a8d91815260200190565b60405180910390a350505050565b6001600160a01b0385166000908152600660205260409020610abd9083610f71565b15610acc57610acc8286610967565b610ad7600486610f93565b50610ae3600283610f93565b506001600160a01b0385166000908152600660205260409020610b069083610f93565b506001600160a01b0380831660009081526008602090815260408083209389168352929052908120600181018690556002810185905560038101548154919291610b5091906116e0565b9050610b5c8184611687565b808355600060038401556001600160a01b0380891691908616907fe0ecbc03c8bdc4a2f3d5082b8904f4b4ac98cdd4e28c3b66f2cd41a3530a78a49089610ba38a82611687565b6040805193845260208401929092529082015260600160405180910390a350505050505050565b6040516001600160a01b0380851660248301528316604482015260648101829052610c359085906323b872dd60e01b906084015b60408051601f198184030181529190526020810180516001600160e01b03166001600160e01b031990931692909217909152610fa8565b50505050565b6040516001600160a01b0383166024820152604481018290526106fa90849063a9059cbb60e01b90606401610bfe565b6001600160a01b0381166000908152600660205260408120610c8c90610953565b805190915060005b81811015610c3557610cbf838281518110610cb157610cb161176a565b602002602001015185610967565b80610cc981611723565b915050610c94565b6000610379825490565b6000610960838361107f565b610cf18282610967565b6001600160a01b038083166000908152600860209081526040808320938516835292905290812060038101548154919291610d2c91906116e0565b6001600160a01b038516600090815260076020526040812080549293508392909190610d599084906116e0565b90915550508015610d7857610d786001600160a01b0385163383610c3b565b610d828484610ec9565b826001600160a01b0316846001600160a01b03167f924ee3a0c84530f8224d0ce3066703c4d60b984708571c7a89f549ace5f8a3e883604051610a8d91815260200190565b60208101516040820151825160009242929091828411610ded5750600095945050505050565b610e158183610dfc86886116e0565b610e0690856116c1565b610e10919061169f565b6110a9565b9695505050505050565b8160005b8181101561049057610e5b858583818110610e4057610e4061176a565b9050602002016020810190610e5591906113ee565b84610967565b80610e6581611723565b915050610e23565b606081600001805480602002602001604051908101604052809291908181526020018280548015610ebd57602002820191906000526020600020905b815481526020019060010190808311610ea9575b50505050509050919050565b6001600160a01b038083166000908152600860209081526040808320938516835292815282822082815560018101839055600281018390556003018290556006905220610f1690836110bf565b506001600160a01b0381166000908152600660205260409020610f3890610cd1565b610f4957610f476004826110bf565b505b6001600160a01b0382166000908152600760205260409020546104a1576106fa6002836110bf565b6001600160a01b03811660009081526001830160205260408120541515610960565b6000610960836001600160a01b0384166110d4565b6000610ffd826040518060400160405280602081526020017f5361666545524332303a206c6f772d6c6576656c2063616c6c206661696c6564815250856001600160a01b03166111239092919063ffffffff16565b8051909150156106fa578080602001905181019061101b91906115b0565b6106fa5760405162461bcd60e51b815260206004820152602a60248201527f5361666545524332303a204552433230206f7065726174696f6e20646964206e6044820152691bdd081cdd58d8d9595960b21b60648201526084015b60405180910390fd5b60008260000182815481106110965761109661176a565b9060005260206000200154905092915050565b60008183106110b85781610960565b5090919050565b6000610960836001600160a01b038416611132565b600081815260018301602052604081205461111b57508154600181810184556000848152602080822090930184905584548482528286019093526040902091909155610379565b506000610379565b60606106d68484600085611225565b6000818152600183016020526040812054801561121b5760006111566001836116e0565b855490915060009061116a906001906116e0565b90508181146111cf57600086600001828154811061118a5761118a61176a565b90600052602060002001549050808760000184815481106111ad576111ad61176a565b6000918252602080832090910192909255918252600188019052604090208390555b85548690806111e0576111e0611754565b600190038181906000526020600020016000905590558560010160008681526020019081526020016000206000905560019350505050610379565b6000915050610379565b6060824710156112865760405162461bcd60e51b815260206004820152602660248201527f416464726573733a20696e73756666696369656e742062616c616e636520666f6044820152651c8818d85b1b60d21b6064820152608401611076565b843b6112d45760405162461bcd60e51b815260206004820152601d60248201527f416464726573733a2063616c6c20746f206e6f6e2d636f6e74726163740000006044820152606401611076565b600080866001600160a01b031685876040516112f091906115eb565b60006040518083038185875af1925050503d806000811461132d576040519150601f19603f3d011682016040523d82523d6000602084013e611332565b606091505b509150915061134282828661134d565b979650505050505050565b6060831561135c575081610960565b82511561136c5782518084602001fd5b8160405162461bcd60e51b81526004016110769190611654565b80356001600160a01b038116811461139d57600080fd5b919050565b60008083601f8401126113b457600080fd5b50813567ffffffffffffffff8111156113cc57600080fd5b6020830191508360208260051b85010111156113e757600080fd5b9250929050565b60006020828403121561140057600080fd5b61096082611386565b6000806040838503121561141c57600080fd5b61142583611386565b915061143360208401611386565b90509250929050565b600080600080600080600060a0888a03121561145757600080fd5b61146088611386565b9650602088013567ffffffffffffffff8082111561147d57600080fd5b6114898b838c016113a2565b909850965060408a01359150808211156114a257600080fd5b506114af8a828b016113a2565b989b979a5095989597966060870135966080013595509350505050565b600080600080600060a086880312156114e457600080fd5b6114ed86611386565b9450602086013593506040860135925061150960608701611386565b949793965091946080013592915050565b6000806020838503121561152d57600080fd5b823567ffffffffffffffff81111561154457600080fd5b611550858286016113a2565b90969095509350505050565b60008060006040848603121561157157600080fd5b833567ffffffffffffffff81111561158857600080fd5b611594868287016113a2565b90945092506115a7905060208501611386565b90509250925092565b6000602082840312156115c257600080fd5b8151801515811461096057600080fd5b6000602082840312156115e457600080fd5b5051919050565b600082516115fd8184602087016116f7565b9190910192915050565b6020808252825182820181905260009190848201906040850190845b818110156116485783516001600160a01b031683529284019291840191600101611623565b50909695505050505050565b60208152600082518060208401526116738160408501602087016116f7565b601f01601f19169190910160400192915050565b6000821982111561169a5761169a61173e565b500190565b6000826116bc57634e487b7160e01b600052601260045260246000fd5b500490565b60008160001904831182151516156116db576116db61173e565b500290565b6000828210156116f2576116f261173e565b500390565b60005b838110156117125781810151838201526020016116fa565b83811115610c355750506000910152565b60006000198214156117375761173761173e565b5060010190565b634e487b7160e01b600052601160045260246000fd5b634e487b7160e01b600052603160045260246000fd5b634e487b7160e01b600052603260045260246000fdfea2646970667358221220976a5ff31ecba99dfe5873bbde58094f12c6da1ed92f6c3aebd98b46e8befa6d64736f6c63430008070033",
  "devdoc": {
    "kind": "dev",
    "methods": {
      "addBenefit(address,uint256,uint256,address,uint256)": {
        "details": "It will claim all previous benefits.",
        "params": {
          "_amount": "Amount of vested token for the inputted beneficiary",
          "_beneficiary": "Address of the beneficiary",
          "_duration": "Seconds to unlock the full benefit",
          "_startDate": "Timestamp at which the benefit starts to take effect",
          "_token": "Address of ERC20 token to be vested"
        }
      },
      "addBenefits(address,address[],uint256[],uint256,uint256)": {
        "params": {
          "_amounts": "Amounts of vested token for each beneficiary",
          "_beneficiaries": "Addresses of the beneficiaries",
          "_duration": "Seconds to unlock the full benefit",
          "_startDate": "Timestamp at which the benefit starts to take effect",
          "_token": "Address of ERC20 token to be vested"
        }
      },
      "getBeneficiaries()": {
        "returns": {
          "_0": "List of beneficiaries"
        }
      },
      "getTokens()": {
        "returns": {
          "_0": "List of vested tokens"
        }
      },
      "getTokensOf(address)": {
        "params": {
          "_beneficiary": "Address of the beneficiary"
        },
        "returns": {
          "_0": "List of vested tokens"
        }
      },
      "releasableAmount(address,address)": {
        "details": "If the vesting period did not end, it returns a proportional claimable amountIf the vesting period is over, it returns the complete vested amount",
        "params": {
          "_beneficiary": "Address of the beneficiary",
          "_token": "Address of ERC20 token to be vested"
        },
        "returns": {
          "_0": "The amount of the vested token the beneficiary can claim at this point in time"
        }
      },
      "release(address)": {
        "params": {
          "_token": "Address of ERC20 token to be vested"
        }
      },
      "release(address,address)": {
        "params": {
          "_beneficiary": "Address of the beneficiary",
          "_token": "Address of ERC20 token to be vested"
        }
      },
      "release(address[])": {
        "params": {
          "_tokens": "List of ERC20 token to be vested"
        }
      },
      "release(address[],address)": {
        "params": {
          "_beneficiary": "Address of the beneficiary",
          "_tokens": "List of ERC20 token to be vested"
        }
      },
      "releaseAll(address)": {
        "params": {
          "_beneficiary": "Address of the beneficiary"
        }
      },
      "releaseDate(address,address)": {
        "params": {
          "_beneficiary": "Address of the beneficiary",
          "_token": "Address of ERC20 vested token"
        },
        "returns": {
          "_0": "The timestamp at which benefit will be fully released."
        }
      },
      "removeBeneficiary(address)": {
        "params": {
          "_beneficiary": "Address of the beneficiary"
        }
      },
      "removeBenefit(address,address)": {
        "params": {
          "_beneficiary": "Address of the beneficiary",
          "_token": "Address of ERC20 token to be vested"
        }
      },
      "sendDust(address)": {
        "params": {
          "_token": "The token that will be transferred"
        }
      },
      "setGovernance(address)": {
        "params": {
          "_governance": "The address of the user proposed to be the new governance"
        }
      }
    },
    "stateVariables": {
      "benefits": {
        "params": {
          "_beneficiary": "Address of the beneficiary",
          "_token": "Address of ERC20 token to be vested"
        },
        "returns": {
          "amount": "Amount of vested token for the inputted beneficiary",
          "duration": "Seconds to unlock the full benefit",
          "released": "The amount of vested tokens already released",
          "startDate": "Timestamp at which the benefit starts to take effect"
        }
      },
      "totalAmountPerToken": {
        "params": {
          "_token": "Address of ERC20 token to be vested"
        },
        "return": "_totalAmount The total amount of requested tokens",
        "returns": {
          "_0": "_totalAmount The total amount of requested tokens"
        }
      }
    },
    "version": 1
  },
  "userdoc": {
    "errors": {
      "NoGovernanceZeroAddress()": [
        {
          "notice": "Throws if trying to set governance to zero address"
        }
      ],
      "OnlyGovernance()": [
        {
          "notice": "Throws if the caller of the function is not governance"
        }
      ],
      "OnlyPendingGovernance()": [
        {
          "notice": "Throws if the caller of the function is not pendingGovernance"
        }
      ],
      "WrongLengthAmounts()": [
        {
          "notice": "Throws when the length of the amounts do not match"
        }
      ],
      "ZeroAddress()": [
        {
          "notice": "Throws if a variable is assigned to the zero address"
        }
      ]
    },
    "events": {
      "BenefitAdded(address,address,uint256,uint256,uint256)": {
        "notice": "Emitted when a benefit is successfully added"
      },
      "BenefitReleased(address,address,uint256)": {
        "notice": "Emitted when a benefit is successfully released"
      },
      "BenefitRemoved(address,address,uint256)": {
        "notice": "Emitted when a benefit is successfully removed"
      },
      "DustSent(address,uint256,address)": {
        "notice": "Emitted when dust is sent"
      },
      "GovernanceProposal(address)": {
        "notice": "Emitted when a new governance is proposed"
      },
      "GovernanceSet(address)": {
        "notice": "Emitted when pendingGovernance accepts to be governance"
      }
    },
    "kind": "user",
    "methods": {
      "acceptGovernance()": {
        "notice": "Changes the governance from the current governance to the previously proposed address"
      },
      "addBenefit(address,uint256,uint256,address,uint256)": {
        "notice": "Creates a vest for a given beneficiary."
      },
      "addBenefits(address,address[],uint256[],uint256,uint256)": {
        "notice": "Creates benefits for a group of beneficiaries"
      },
      "benefits(address,address)": {
        "notice": "Returns the benefit data for a given token and beneficiary"
      },
      "getBeneficiaries()": {
        "notice": "Lists users with an ongoing benefit"
      },
      "getTokens()": {
        "notice": "Lists all the tokens that are currently vested"
      },
      "getTokensOf(address)": {
        "notice": "Lists the current vested tokens for the given address"
      },
      "governance()": {
        "notice": "Stores the governance address"
      },
      "pendingGovernance()": {
        "notice": "Stores the pendingGovernance address"
      },
      "releasableAmount(address,address)": {
        "notice": "Returns the claimable amount of a vested token for a specific beneficiary"
      },
      "release(address)": {
        "notice": "Releases a token in its correspondent amount to the function caller"
      },
      "release(address,address)": {
        "notice": "Releases a token in its correspondent amount to a particular beneficiary"
      },
      "release(address[])": {
        "notice": "Releases a list of tokens in their correspondent amounts to the function caller"
      },
      "release(address[],address)": {
        "notice": "Releases a list of tokens in their correspondent amounts to a particular beneficiary"
      },
      "releaseAll()": {
        "notice": "Releases all tokens in their correspondent amounts to the function caller"
      },
      "releaseAll(address)": {
        "notice": "Releases all tokens in their correspondent amounts to a particular beneficiary"
      },
      "releaseDate(address,address)": {
        "notice": "Returns the end date of a vesting period"
      },
      "removeBeneficiary(address)": {
        "notice": "Removes all benefits from a given beneficiaryReleases the claimable balances and transfers the pending benefits to governance"
      },
      "removeBenefit(address,address)": {
        "notice": "Removes a given benefitReleases the claimable balance and transfers the pending benefit to governance"
      },
      "sendDust(address)": {
        "notice": "Allows an authorized user to transfer the tokens or eth that may have been left in a contract"
      },
      "setGovernance(address)": {
        "notice": "Proposes a new address to be governance"
      },
      "totalAmountPerToken(address)": {
        "notice": "Returns the total amount of the given vested token across all beneficiaries"
      }
    },
    "version": 1
  },
  "storageLayout": {
    "storage": [
      {
        "astId": 1887,
        "contract": "contracts/VestingWallet.sol:VestingWallet",
        "label": "governance",
        "offset": 0,
        "slot": "0",
        "type": "t_address"
      },
      {
        "astId": 1891,
        "contract": "contracts/VestingWallet.sol:VestingWallet",
        "label": "pendingGovernance",
        "offset": 0,
        "slot": "1",
        "type": "t_address"
      },
      {
        "astId": 1998,
        "contract": "contracts/VestingWallet.sol:VestingWallet",
        "label": "_vestedTokens",
        "offset": 0,
        "slot": "2",
        "type": "t_struct(AddressSet)1591_storage"
      },
      {
        "astId": 2001,
        "contract": "contracts/VestingWallet.sol:VestingWallet",
        "label": "_beneficiaries",
        "offset": 0,
        "slot": "4",
        "type": "t_struct(AddressSet)1591_storage"
      },
      {
        "astId": 2006,
        "contract": "contracts/VestingWallet.sol:VestingWallet",
        "label": "_tokensPerBeneficiary",
        "offset": 0,
        "slot": "6",
        "type": "t_mapping(t_address,t_struct(AddressSet)1591_storage)"
      },
      {
        "astId": 2012,
        "contract": "contracts/VestingWallet.sol:VestingWallet",
        "label": "totalAmountPerToken",
        "offset": 0,
        "slot": "7",
        "type": "t_mapping(t_address,t_uint256)"
      },
      {
        "astId": 2021,
        "contract": "contracts/VestingWallet.sol:VestingWallet",
        "label": "benefits",
        "offset": 0,
        "slot": "8",
        "type": "t_mapping(t_address,t_mapping(t_address,t_struct(Benefit)3016_storage))"
      }
    ],
    "types": {
      "t_address": {
        "encoding": "inplace",
        "label": "address",
        "numberOfBytes": "20"
      },
      "t_array(t_bytes32)dyn_storage": {
        "base": "t_bytes32",
        "encoding": "dynamic_array",
        "label": "bytes32[]",
        "numberOfBytes": "32"
      },
      "t_bytes32": {
        "encoding": "inplace",
        "label": "bytes32",
        "numberOfBytes": "32"
      },
      "t_mapping(t_address,t_mapping(t_address,t_struct(Benefit)3016_storage))": {
        "encoding": "mapping",
        "key": "t_address",
        "label": "mapping(address => mapping(address => struct IVestingWallet.Benefit))",
        "numberOfBytes": "32",
        "value": "t_mapping(t_address,t_struct(Benefit)3016_storage)"
      },
      "t_mapping(t_address,t_struct(AddressSet)1591_storage)": {
        "encoding": "mapping",
        "key": "t_address",
        "label": "mapping(address => struct EnumerableSet.AddressSet)",
        "numberOfBytes": "32",
        "value": "t_struct(AddressSet)1591_storage"
      },
      "t_mapping(t_address,t_struct(Benefit)3016_storage)": {
        "encoding": "mapping",
        "key": "t_address",
        "label": "mapping(address => struct IVestingWallet.Benefit)",
        "numberOfBytes": "32",
        "value": "t_struct(Benefit)3016_storage"
      },
      "t_mapping(t_address,t_uint256)": {
        "encoding": "mapping",
        "key": "t_address",
        "label": "mapping(address => uint256)",
        "numberOfBytes": "32",
        "value": "t_uint256"
      },
      "t_mapping(t_bytes32,t_uint256)": {
        "encoding": "mapping",
        "key": "t_bytes32",
        "label": "mapping(bytes32 => uint256)",
        "numberOfBytes": "32",
        "value": "t_uint256"
      },
      "t_struct(AddressSet)1591_storage": {
        "encoding": "inplace",
        "label": "struct EnumerableSet.AddressSet",
        "members": [
          {
            "astId": 1590,
            "contract": "contracts/VestingWallet.sol:VestingWallet",
            "label": "_inner",
            "offset": 0,
            "slot": "0",
            "type": "t_struct(Set)1290_storage"
          }
        ],
        "numberOfBytes": "64"
      },
      "t_struct(Benefit)3016_storage": {
        "encoding": "inplace",
        "label": "struct IVestingWallet.Benefit",
        "members": [
          {
            "astId": 3009,
            "contract": "contracts/VestingWallet.sol:VestingWallet",
            "label": "amount",
            "offset": 0,
            "slot": "0",
            "type": "t_uint256"
          },
          {
            "astId": 3011,
            "contract": "contracts/VestingWallet.sol:VestingWallet",
            "label": "startDate",
            "offset": 0,
            "slot": "1",
            "type": "t_uint256"
          },
          {
            "astId": 3013,
            "contract": "contracts/VestingWallet.sol:VestingWallet",
            "label": "duration",
            "offset": 0,
            "slot": "2",
            "type": "t_uint256"
          },
          {
            "astId": 3015,
            "contract": "contracts/VestingWallet.sol:VestingWallet",
            "label": "released",
            "offset": 0,
            "slot": "3",
            "type": "t_uint256"
          }
        ],
        "numberOfBytes": "128"
      },
      "t_struct(Set)1290_storage": {
        "encoding": "inplace",
        "label": "struct EnumerableSet.Set",
        "members": [
          {
            "astId": 1285,
            "contract": "contracts/VestingWallet.sol:VestingWallet",
            "label": "_values",
            "offset": 0,
            "slot": "0",
            "type": "t_array(t_bytes32)dyn_storage"
          },
          {
            "astId": 1289,
            "contract": "contracts/VestingWallet.sol:VestingWallet",
            "label": "_indexes",
            "offset": 0,
            "slot": "1",
            "type": "t_mapping(t_bytes32,t_uint256)"
          }
        ],
        "numberOfBytes": "64"
      },
      "t_uint256": {
        "encoding": "inplace",
        "label": "uint256",
        "numberOfBytes": "32"
      }
    }
  }
}