{
  "address": "0xB5Aad6E68D9f1F1964d3784Cc0460E8Ab48aC77b",
  "abi": [
    {
      "inputs": [
        {
          "internalType": "address",
          "name": "_governance",
          "type": "address"
        }
      ],
      "stateMutability": "nonpayable",
      "type": "constructor"
    },
    {
      "inputs": [],
      "name": "NoGovernanceZeroAddress",
      "type": "error"
    },
    {
      "inputs": [],
      "name": "OnlyGovernance",
      "type": "error"
    },
    {
      "inputs": [],
      "name": "OnlyPendingGovernance",
      "type": "error"
    },
    {
      "inputs": [],
      "name": "WrongLengthAmounts",
      "type": "error"
    },
    {
      "inputs": [],
      "name": "ZeroAddress",
      "type": "error"
    },
    {
      "anonymous": false,
      "inputs": [
        {
          "indexed": true,
          "internalType": "address",
          "name": "token",
          "type": "address"
        },
        {
          "indexed": true,
          "internalType": "address",
          "name": "beneficiary",
          "type": "address"
        },
        {
          "indexed": false,
          "internalType": "uint256",
          "name": "amount",
          "type": "uint256"
        },
        {
          "indexed": false,
          "internalType": "uint256",
          "name": "startDate",
          "type": "uint256"
        },
        {
          "indexed": false,
          "internalType": "uint256",
          "name": "releaseDate",
          "type": "uint256"
        }
      ],
      "name": "BenefitAdded",
      "type": "event"
    },
    {
      "anonymous": false,
      "inputs": [
        {
          "indexed": true,
          "internalType": "address",
          "name": "token",
          "type": "address"
        },
        {
          "indexed": true,
          "internalType": "address",
          "name": "beneficiary",
          "type": "address"
        },
        {
          "indexed": false,
          "internalType": "uint256",
          "name": "releasedAmount",
          "type": "uint256"
        }
      ],
      "name": "BenefitReleased",
      "type": "event"
    },
    {
      "anonymous": false,
      "inputs": [
        {
          "indexed": true,
          "internalType": "address",
          "name": "token",
          "type": "address"
        },
        {
          "indexed": true,
          "internalType": "address",
          "name": "beneficiary",
          "type": "address"
        },
        {
          "indexed": false,
          "internalType": "uint256",
          "name": "removedAmount",
          "type": "uint256"
        }
      ],
      "name": "BenefitRemoved",
      "type": "event"
    },
    {
      "anonymous": false,
      "inputs": [
        {
          "indexed": false,
          "internalType": "address",
          "name": "_token",
          "type": "address"
        },
        {
          "indexed": false,
          "internalType": "uint256",
          "name": "_amount",
          "type": "uint256"
        },
        {
          "indexed": false,
          "internalType": "address",
          "name": "_to",
          "type": "address"
        }
      ],
      "name": "DustSent",
      "type": "event"
    },
    {
      "anonymous": false,
      "inputs": [
        {
          "indexed": false,
          "internalType": "address",
          "name": "_pendingGovernance",
          "type": "address"
        }
      ],
      "name": "GovernanceProposal",
      "type": "event"
    },
    {
      "anonymous": false,
      "inputs": [
        {
          "indexed": false,
          "internalType": "address",
          "name": "_governance",
          "type": "address"
        }
      ],
      "name": "GovernanceSet",
      "type": "event"
    },
    {
      "inputs": [],
      "name": "acceptGovernance",
      "outputs": [],
      "stateMutability": "nonpayable",
      "type": "function"
    },
    {
      "inputs": [
        {
          "internalType": "address",
          "name": "_beneficiary",
          "type": "address"
        },
        {
          "internalType": "uint256",
          "name": "_startDate",
          "type": "uint256"
        },
        {
          "internalType": "uint256",
          "name": "_duration",
          "type": "uint256"
        },
        {
          "internalType": "address",
          "name": "_token",
          "type": "address"
        },
        {
          "internalType": "uint256",
          "name": "_amount",
          "type": "uint256"
        }
      ],
      "name": "addBenefit",
      "outputs": [],
      "stateMutability": "nonpayable",
      "type": "function"
    },
    {
      "inputs": [
        {
          "internalType": "address",
          "name": "_token",
          "type": "address"
        },
        {
          "internalType": "address[]",
          "name": "__beneficiaries",
          "type": "address[]"
        },
        {
          "internalType": "uint256[]",
          "name": "_amounts",
          "type": "uint256[]"
        },
        {
          "internalType": "uint256",
          "name": "_startDate",
          "type": "uint256"
        },
        {
          "internalType": "uint256",
          "name": "_duration",
          "type": "uint256"
        }
      ],
      "name": "addBenefits",
      "outputs": [],
      "stateMutability": "nonpayable",
      "type": "function"
    },
    {
      "inputs": [
        {
          "internalType": "address",
          "name": "",
          "type": "address"
        },
        {
          "internalType": "address",
          "name": "",
          "type": "address"
        }
      ],
      "name": "benefits",
      "outputs": [
        {
          "internalType": "uint256",
          "name": "amount",
          "type": "uint256"
        },
        {
          "internalType": "uint256",
          "name": "startDate",
          "type": "uint256"
        },
        {
          "internalType": "uint256",
          "name": "duration",
          "type": "uint256"
        },
        {
          "internalType": "uint256",
          "name": "released",
          "type": "uint256"
        }
      ],
      "stateMutability": "view",
      "type": "function"
    },
    {
      "inputs": [],
      "name": "getBeneficiaries",
      "outputs": [
        {
          "internalType": "address[]",
          "name": "",
          "type": "address[]"
        }
      ],
      "stateMutability": "view",
      "type": "function"
    },
    {
      "inputs": [],
      "name": "getTokens",
      "outputs": [
        {
          "internalType": "address[]",
          "name": "",
          "type": "address[]"
        }
      ],
      "stateMutability": "view",
      "type": "function"
    },
    {
      "inputs": [
        {
          "internalType": "address",
          "name": "_beneficiary",
          "type": "address"
        }
      ],
      "name": "getTokensOf",
      "outputs": [
        {
          "internalType": "address[]",
          "name": "",
          "type": "address[]"
        }
      ],
      "stateMutability": "view",
      "type": "function"
    },
    {
      "inputs": [],
      "name": "governance",
      "outputs": [
        {
          "internalType": "address",
          "name": "",
          "type": "address"
        }
      ],
      "stateMutability": "view",
      "type": "function"
    },
    {
      "inputs": [],
      "name": "pendingGovernance",
      "outputs": [
        {
          "internalType": "address",
          "name": "",
          "type": "address"
        }
      ],
      "stateMutability": "view",
      "type": "function"
    },
    {
      "inputs": [
        {
          "internalType": "address",
          "name": "_token",
          "type": "address"
        },
        {
          "internalType": "address",
          "name": "_beneficiary",
          "type": "address"
        }
      ],
      "name": "releasableAmount",
      "outputs": [
        {
          "internalType": "uint256",
          "name": "",
          "type": "uint256"
        }
      ],
      "stateMutability": "view",
      "type": "function"
    },
    {
      "inputs": [
        {
          "internalType": "address",
          "name": "_token",
          "type": "address"
        }
      ],
      "name": "release",
      "outputs": [],
      "stateMutability": "nonpayable",
      "type": "function"
    },
    {
      "inputs": [
        {
          "internalType": "address",
          "name": "_token",
          "type": "address"
        },
        {
          "internalType": "address",
          "name": "_beneficiary",
          "type": "address"
        }
      ],
      "name": "release",
      "outputs": [],
      "stateMutability": "nonpayable",
      "type": "function"
    },
    {
      "inputs": [
        {
          "internalType": "address[]",
          "name": "_tokens",
          "type": "address[]"
        },
        {
          "internalType": "address",
          "name": "_beneficiary",
          "type": "address"
        }
      ],
      "name": "release",
      "outputs": [],
      "stateMutability": "nonpayable",
      "type": "function"
    },
    {
      "inputs": [
        {
          "internalType": "address[]",
          "name": "_tokens",
          "type": "address[]"
        }
      ],
      "name": "release",
      "outputs": [],
      "stateMutability": "nonpayable",
      "type": "function"
    },
    {
      "inputs": [
        {
          "internalType": "address",
          "name": "_token",
          "type": "address"
        },
        {
          "internalType": "address",
          "name": "_beneficiary",
          "type": "address"
        }
      ],
      "name": "releaseDate",
      "outputs": [
        {
          "internalType": "uint256",
          "name": "",
          "type": "uint256"
        }
      ],
      "stateMutability": "view",
      "type": "function"
    },
    {
      "inputs": [
        {
          "internalType": "address",
          "name": "_beneficiary",
          "type": "address"
        }
      ],
      "name": "removeBeneficiary",
      "outputs": [],
      "stateMutability": "nonpayable",
      "type": "function"
    },
    {
      "inputs": [
        {
          "internalType": "address",
          "name": "_token",
          "type": "address"
        },
        {
          "internalType": "address",
          "name": "_beneficiary",
          "type": "address"
        }
      ],
      "name": "removeBenefit",
      "outputs": [],
      "stateMutability": "nonpayable",
      "type": "function"
    },
    {
      "inputs": [
        {
          "internalType": "address",
          "name": "_token",
          "type": "address"
        }
      ],
      "name": "sendDust",
      "outputs": [],
      "stateMutability": "nonpayable",
      "type": "function"
    },
    {
      "inputs": [
        {
          "internalType": "address",
          "name": "_governance",
          "type": "address"
        }
      ],
      "name": "setGovernance",
      "outputs": [],
      "stateMutability": "nonpayable",
      "type": "function"
    },
    {
      "inputs": [
        {
          "internalType": "address",
          "name": "",
          "type": "address"
        }
      ],
      "name": "totalAmountPerToken",
      "outputs": [
        {
          "internalType": "uint256",
          "name": "",
          "type": "uint256"
        }
      ],
      "stateMutability": "view",
      "type": "function"
    }
  ],
  "transactionHash": "0x73ab57c60b4c5b682a89612dedabe35af7ef2de2f278bf4391cd4bc2b3850acb",
  "args": [
    "0x7D4BF49D39374BdDeB2aa70511c2b772a0Bcf91e"
  ],
  "solcInputHash": "62f725a275f03f47ff980a377fdb11c6",
  "bytecode": "0x608060405234801561001057600080fd5b5060405161186538038061186583398101604081905261002f9161007c565b806001600160a01b0381166100565760405162b293ed60e81b815260040160405180910390fd5b600080546001600160a01b0319166001600160a01b0392909216919091179055506100ac565b60006020828403121561008e57600080fd5b81516001600160a01b03811681146100a557600080fd5b9392505050565b6117aa806100bb6000396000f3fe608060405234801561001057600080fd5b506004361061012c5760003560e01c8063a7d092b2116100ad578063bac9556d11610071578063bac9556d1461026b578063d402b4d41461027e578063df5da96614610291578063f39c38a0146102b1578063fd1ccc42146102c457600080fd5b8063a7d092b214610217578063aa6ca8081461022a578063ab033ea914610232578063b4e8623514610245578063b8df2a1b1461025857600080fd5b8063550e5ac1116100f4578063550e5ac11461019d57806359633a1c146101b05780635aa6e675146101c35780637243cfbb146101ee578063913b722c1461020f57600080fd5b80630986b21014610131578063191655871461015a578063238efcbc1461016f578063368090481461017757806348b750441461018a575b600080fd5b61014461013f366004611342565b610324565b6040516101519190611590565b60405180910390f35b61016d610168366004611342565b61034e565b005b61016d61035b565b61016d610185366004611471565b6103e4565b61016d61019836600461135d565b610466565b61016d6101ab366004611342565b610474565b61016d6101be366004611342565b6105a0565b6000546101d6906001600160a01b031681565b6040516001600160a01b039091168152602001610151565b6102016101fc36600461135d565b610623565b604051908152602001610151565b610144610699565b61016d6102253660046114f4565b6106aa565b6101446106f2565b61016d610240366004611342565b6106fe565b61016d610253366004611390565b61077d565b61016d6102663660046114bf565b61089c565b61020161027936600461135d565b6108df565b61016d61028c36600461135d565b61093e565b61020161029f366004611342565b60066020526000908152604090205481565b6001546101d6906001600160a01b031681565b6103046102d236600461135d565b600760209081526000928352604080842090915290825290208054600182015460028301546003909301549192909184565b604080519485526020850193909352918301526060820152608001610151565b6001600160a01b038116600090815260086020526040902060609061034890610973565b92915050565b6103588133610987565b50565b6001546001600160a01b0316331461038657604051637ef5703160e11b815260040160405180910390fd5b60018054600080546001600160a01b0383166001600160a01b031991821681179092559091169091556040519081527fc73be659241aade67e9a059bcf21494955018b213dbd1179054ccf928b13f3b69060200160405180910390a1565b6000546001600160a01b0316331461040f576040516354348f0360e01b815260040160405180910390fd5b61041c8585858585610abb565b6001600160a01b03821660009081526006602052604081208054839290610444908490611665565b9091555061045f90506001600160a01b038316333084610bc7565b5050505050565b6104708282610987565b5050565b6000546001600160a01b0316331461049f576040516354348f0360e01b815260040160405180910390fd5b6001600160a01b0381166000818152600660205260408082205490516370a0823160e01b8152306004820152919290916370a082319060240160206040518083038186803b1580156104f057600080fd5b505afa158015610504573d6000803e3d6000fd5b505050506040513d601f19601f82011682018060405250810190610528919061155b565b61053291906116be565b60005490915061054f906001600160a01b03848116911683610c32565b600054604080516001600160a01b0385811682526020820185905290921682820152517f9a3055ded8c8b5f21bbf4946c5afab6e1fa8b3f057922658e5e1ade125fb0b1e9181900360600190a15050565b6000546001600160a01b031633146105cb576040516354348f0360e01b815260040160405180910390fd5b6001600160a01b03811660009081526008602052604081206105ec90610c67565b1115610358576001600160a01b038116600090815260086020526040812061061e916106189190610c71565b82610c7d565b6105cb565b6001600160a01b03808316600090815260076020908152604080832093851683529281528282208351608081018552815481526001820154928101929092526002810154938201939093526003909201546060830181905290919061068782610d5d565b61069191906116be565b949350505050565b60606106a56004610973565b905090565b815160005b818110156106ec576106da8482815181106106cc576106cc611748565b602002602001015184610987565b806106e481611701565b9150506106af565b50505050565b60606106a56002610973565b6000546001600160a01b03163314610729576040516354348f0360e01b815260040160405180910390fd5b600180546001600160a01b0319166001600160a01b0383169081179091556040519081527fe987aaedf9d279143bdf1eee16cf1d0feb47742867d81083df8d6cd0a5ac857f9060200160405180910390a150565b6000546001600160a01b031633146107a8576040516354348f0360e01b815260040160405180910390fd5b8351835181146107cb5760405163c2717c7160e01b815260040160405180910390fd5b6000805b8281101561084f576108168782815181106107ec576107ec611748565b602002602001015186868b8a868151811061080957610809611748565b6020026020010151610abb565b85818151811061082857610828611748565b60200260200101518261083b9190611665565b91508061084781611701565b9150506107cf565b506001600160a01b03871660009081526006602052604081208054839290610878908490611665565b9091555061089390506001600160a01b038816333084610bc7565b50505050505050565b80513360005b828110156106ec576108cd8482815181106108bf576108bf611748565b602002602001015183610987565b806108d781611701565b9150506108a2565b6001600160a01b0380831660009081526007602090815260408083209385168352928152828220835160808101855281548152600182015492810183905260028201549481018590526003909101546060820152919261069191611665565b6000546001600160a01b03163314610969576040516354348f0360e01b815260040160405180910390fd5b6104708282610c7d565b6060600061098083610db6565b9392505050565b6001600160a01b038083166000908152600760209081526040808320938516835292815282822060038101548451608081018652825481526001830154938101939093526002820154948301949094526060820184905292906109e990610d5d565b6109f391906116be565b905080610a005750505050565b80826003016000828254610a149190611665565b90915550506001600160a01b03841660009081526006602052604081208054839290610a419084906116be565b9091555050815460038301541415610a5d57610a5d8484610e12565b610a68848483610c32565b826001600160a01b0316846001600160a01b03167f912d56c6799e46305ea2b933a5c2cee2a5e05c9cf0eb6e7086b53e487eab24da83604051610aad91815260200190565b60405180910390a350505050565b610ac6600486610eba565b50610ad2600283610eba565b506001600160a01b0385166000908152600860205260409020610af59083610eba565b506001600160a01b038083166000908152600760209081526040808320938916835292905220805415610b2c57610b2c8387610987565b600181018590556002810184905560038101548154600091610b4d916116be565b9050610b598184611665565b808355600060038401556001600160a01b0380891691908616907fe0ecbc03c8bdc4a2f3d5082b8904f4b4ac98cdd4e28c3b66f2cd41a3530a78a49089610ba08a82611665565b6040805193845260208401929092529082015260600160405180910390a350505050505050565b6040516001600160a01b03808516602483015283166044820152606481018290526106ec9085906323b872dd60e01b906084015b60408051601f198184030181529190526020810180516001600160e01b03166001600160e01b031990931692909217909152610ecf565b6040516001600160a01b038316602482015260448101829052610c6290849063a9059cbb60e01b90606401610bfb565b505050565b6000610348825490565b60006109808383610fa6565b610c878282610987565b6001600160a01b038083166000908152600760209081526040808320938516835292905290812060038101548154919291610cc291906116be565b6001600160a01b038516600090815260066020526040812080549293508392909190610cef9084906116be565b90915550508015610d0e57610d0e6001600160a01b0385163383610c32565b610d188484610e12565b826001600160a01b0316846001600160a01b03167f924ee3a0c84530f8224d0ce3066703c4d60b984708571c7a89f549ace5f8a3e883604051610aad91815260200190565b6020810151604082015182516000924292909182841015610d845750600095945050505050565b610dac8183610d9386886116be565b610d9d908561169f565b610da7919061167d565b610fd0565b9695505050505050565b606081600001805480602002602001604051908101604052809291908181526020018280548015610e0657602002820191906000526020600020905b815481526020019060010190808311610df2575b50505050509050919050565b6001600160a01b038083166000908152600760209081526040808320938516835292815282822082815560018101839055600281018390556003018290556008905220610e5f9083610fe6565b506001600160a01b0381166000908152600860205260409020610e8190610c67565b610e9257610e90600482610fe6565b505b6001600160a01b03821660009081526006602052604090205461047057610c62600283610fe6565b6000610980836001600160a01b038416610ffb565b6000610f24826040518060400160405280602081526020017f5361666545524332303a206c6f772d6c6576656c2063616c6c206661696c6564815250856001600160a01b031661104a9092919063ffffffff16565b805190915015610c625780806020019051810190610f429190611539565b610c625760405162461bcd60e51b815260206004820152602a60248201527f5361666545524332303a204552433230206f7065726174696f6e20646964206e6044820152691bdd081cdd58d8d9595960b21b60648201526084015b60405180910390fd5b6000826000018281548110610fbd57610fbd611748565b9060005260206000200154905092915050565b6000818310610fdf5781610980565b5090919050565b6000610980836001600160a01b038416611059565b600081815260018301602052604081205461104257508154600181810184556000848152602080822090930184905584548482528286019093526040902091909155610348565b506000610348565b6060610691848460008561114c565b6000818152600183016020526040812054801561114257600061107d6001836116be565b8554909150600090611091906001906116be565b90508181146110f65760008660000182815481106110b1576110b1611748565b90600052602060002001549050808760000184815481106110d4576110d4611748565b6000918252602080832090910192909255918252600188019052604090208390555b855486908061110757611107611732565b600190038181906000526020600020016000905590558560010160008681526020019081526020016000206000905560019350505050610348565b6000915050610348565b6060824710156111ad5760405162461bcd60e51b815260206004820152602660248201527f416464726573733a20696e73756666696369656e742062616c616e636520666f6044820152651c8818d85b1b60d21b6064820152608401610f9d565b843b6111fb5760405162461bcd60e51b815260206004820152601d60248201527f416464726573733a2063616c6c20746f206e6f6e2d636f6e74726163740000006044820152606401610f9d565b600080866001600160a01b031685876040516112179190611574565b60006040518083038185875af1925050503d8060008114611254576040519150601f19603f3d011682016040523d82523d6000602084013e611259565b606091505b5091509150611269828286611274565b979650505050505050565b60608315611283575081610980565b8251156112935782518084602001fd5b8160405162461bcd60e51b8152600401610f9d91906115dd565b80356001600160a01b03811681146112c457600080fd5b919050565b600082601f8301126112da57600080fd5b813560206112ef6112ea83611641565b611610565b80838252828201915082860187848660051b890101111561130f57600080fd5b60005b8581101561133557611323826112ad565b84529284019290840190600101611312565b5090979650505050505050565b60006020828403121561135457600080fd5b610980826112ad565b6000806040838503121561137057600080fd5b611379836112ad565b9150611387602084016112ad565b90509250929050565b600080600080600060a086880312156113a857600080fd5b6113b1866112ad565b945060208087013567ffffffffffffffff808211156113cf57600080fd5b6113db8a838b016112c9565b965060408901359150808211156113f157600080fd5b508701601f8101891361140357600080fd5b80356114116112ea82611641565b8082825284820191508484018c868560051b870101111561143157600080fd5b600094505b83851015611454578035835260019490940193918501918501611436565b50989b979a50979860608101359850608001359695505050505050565b600080600080600060a0868803121561148957600080fd5b611492866112ad565b945060208601359350604086013592506114ae606087016112ad565b949793965091946080013592915050565b6000602082840312156114d157600080fd5b813567ffffffffffffffff8111156114e857600080fd5b610691848285016112c9565b6000806040838503121561150757600080fd5b823567ffffffffffffffff81111561151e57600080fd5b61152a858286016112c9565b925050611387602084016112ad565b60006020828403121561154b57600080fd5b8151801515811461098057600080fd5b60006020828403121561156d57600080fd5b5051919050565b600082516115868184602087016116d5565b9190910192915050565b6020808252825182820181905260009190848201906040850190845b818110156115d15783516001600160a01b0316835292840192918401916001016115ac565b50909695505050505050565b60208152600082518060208401526115fc8160408501602087016116d5565b601f01601f19169190910160400192915050565b604051601f8201601f1916810167ffffffffffffffff811182821017156116395761163961175e565b604052919050565b600067ffffffffffffffff82111561165b5761165b61175e565b5060051b60200190565b600082198211156116785761167861171c565b500190565b60008261169a57634e487b7160e01b600052601260045260246000fd5b500490565b60008160001904831182151516156116b9576116b961171c565b500290565b6000828210156116d0576116d061171c565b500390565b60005b838110156116f05781810151838201526020016116d8565b838111156106ec5750506000910152565b60006000198214156117155761171561171c565b5060010190565b634e487b7160e01b600052601160045260246000fd5b634e487b7160e01b600052603160045260246000fd5b634e487b7160e01b600052603260045260246000fd5b634e487b7160e01b600052604160045260246000fdfea2646970667358221220bdd5e99866cd5eda8bf9fb2a0af46b71f35f0155df9bf3d747b31cbde1d3ef1b64736f6c63430008070033",
  "devdoc": {
    "kind": "dev",
    "methods": {
      "addBenefit(address,uint256,uint256,address,uint256)": {
        "details": "It will claim all previous benefits.",
        "params": {
          "_amount": "Amount of vested token for the inputted beneficiary",
          "_beneficiary": "Address of the beneficiary",
          "_duration": "Seconds to unlock the full benefit",
          "_startDate": "Timestamp at which the benefit starts to take effect",
          "_token": "Address of ERC20 token to be vested"
        }
      },
      "addBenefits(address,address[],uint256[],uint256,uint256)": {
        "params": {
          "_amounts": "Amounts of vested token for each beneficiary",
          "_beneficiaries": "Addresses of the beneficiaries",
          "_duration": "Seconds to unlock the full benefit",
          "_startDate": "Timestamp at which the benefit starts to take effect",
          "_token": "Address of ERC20 token to be vested"
        }
      },
      "getBeneficiaries()": {
        "returns": {
          "_0": "List of beneficiaries"
        }
      },
      "getTokens()": {
        "returns": {
          "_0": "List of vested tokens"
        }
      },
      "getTokensOf(address)": {
        "params": {
          "_beneficiary": "Address of the beneficiary"
        },
        "returns": {
          "_0": "List of vested tokens"
        }
      },
      "releasableAmount(address,address)": {
        "details": "If the vesting period did not end, it returns a proportional claimable amountIf the vesting period is over, it returns the complete vested amount",
        "params": {
          "_beneficiary": "Address of the beneficiary",
          "_token": "Address of ERC20 token to be vested"
        },
        "returns": {
          "_0": "The amount of the vested token the beneficiary can claim at this point in time"
        }
      },
      "release(address)": {
        "params": {
          "_token": "Address of ERC20 token to be vested"
        }
      },
      "release(address,address)": {
        "params": {
          "_beneficiary": "Address of the beneficiary",
          "_token": "Address of ERC20 token to be vested"
        }
      },
      "release(address[])": {
        "params": {
          "_tokens": "List of ERC20 token to be vested"
        }
      },
      "release(address[],address)": {
        "params": {
          "_beneficiary": "Address of the beneficiary",
          "_tokens": "List of ERC20 token to be vested"
        }
      },
      "releaseDate(address,address)": {
        "params": {
          "_beneficiary": "Address of the beneficiary",
          "_token": "Address of ERC20 vested token"
        },
        "returns": {
          "_0": "The timestamp at which benefit will be fully released."
        }
      },
      "removeBeneficiary(address)": {
        "params": {
          "_beneficiary": "Address of the beneficiary"
        }
      },
      "removeBenefit(address,address)": {
        "params": {
          "_beneficiary": "Address of the beneficiary",
          "_token": "Address of ERC20 token to be vested"
        }
      },
      "sendDust(address)": {
        "params": {
          "_token": "The token that will be transferred"
        }
      },
      "setGovernance(address)": {
        "params": {
          "_governance": "The address of the user proposed to be the new governance"
        }
      }
    },
    "stateVariables": {
      "benefits": {
        "params": {
          "_beneficiary": "Address of the beneficiary",
          "_token": "Address of ERC20 token to be vested"
        },
        "returns": {
          "amount": "Amount of vested token for the inputted beneficiary",
          "duration": "Seconds to unlock the full benefit",
          "released": "The amount of vested tokens already released",
          "startDate": "Timestamp at which the benefit starts to take effect"
        }
      },
      "totalAmountPerToken": {
        "params": {
          "_token": "Address of ERC20 token to be vested"
        },
        "return": "_totalAmount The total amount of requested tokens",
        "returns": {
          "_0": "_totalAmount The total amount of requested tokens"
        }
      }
    },
    "version": 1
  },
  "userdoc": {
    "errors": {
      "NoGovernanceZeroAddress()": [
        {
          "notice": "Throws if trying to set governance to zero address"
        }
      ],
      "OnlyGovernance()": [
        {
          "notice": "Throws if the caller of the function is not governance"
        }
      ],
      "OnlyPendingGovernance()": [
        {
          "notice": "Throws if the caller of the function is not pendingGovernance"
        }
      ],
      "WrongLengthAmounts()": [
        {
          "notice": "Throws when the length of the amounts do not match"
        }
      ],
      "ZeroAddress()": [
        {
          "notice": "Throws if a variable is assigned to the zero address"
        }
      ]
    },
    "events": {
      "BenefitAdded(address,address,uint256,uint256,uint256)": {
        "notice": "Emitted when a benefit is successfully added"
      },
      "BenefitReleased(address,address,uint256)": {
        "notice": "Emitted when a benefit is successfully released"
      },
      "BenefitRemoved(address,address,uint256)": {
        "notice": "Emitted when a benefit is successfully removed"
      },
      "DustSent(address,uint256,address)": {
        "notice": "Emitted when dust is sent"
      },
      "GovernanceProposal(address)": {
        "notice": "Emitted when a new governance is proposed"
      },
      "GovernanceSet(address)": {
        "notice": "Emitted when pendingGovernance accepts to be governance"
      }
    },
    "kind": "user",
    "methods": {
      "acceptGovernance()": {
        "notice": "Changes the governance from the current governance to the previously proposed address"
      },
      "addBenefit(address,uint256,uint256,address,uint256)": {
        "notice": "Creates a vest for a given beneficiary."
      },
      "addBenefits(address,address[],uint256[],uint256,uint256)": {
        "notice": "Creates benefits for a group of beneficiaries"
      },
      "benefits(address,address)": {
        "notice": "Returns the benefit data for a given token and beneficiary"
      },
      "getBeneficiaries()": {
        "notice": "Lists users with an ongoing benefit"
      },
      "getTokens()": {
        "notice": "Lists all the tokens that are currently vested"
      },
      "getTokensOf(address)": {
        "notice": "Lists the current vested tokens for the given address"
      },
      "governance()": {
        "notice": "Stores the governance address"
      },
      "pendingGovernance()": {
        "notice": "Stores the pendingGovernance address"
      },
      "releasableAmount(address,address)": {
        "notice": "Returns the claimable amount of a vested token for a specific beneficiary"
      },
      "release(address)": {
        "notice": "Releases a token in its correspondent amount to the function caller"
      },
      "release(address,address)": {
        "notice": "Releases a token in its correspondent amount to a particular beneficiary"
      },
      "release(address[])": {
        "notice": "Releases a list of tokens in their correspondent amounts to the function caller"
      },
      "release(address[],address)": {
        "notice": "Releases a list of tokens in their correspondent amounts to a particular beneficiary"
      },
      "releaseDate(address,address)": {
        "notice": "Returns the end date of a vesting period"
      },
      "removeBeneficiary(address)": {
        "notice": "Removes all benefits from a given beneficiaryReleases the claimable balances and transfers the pending benefits to governance"
      },
      "removeBenefit(address,address)": {
        "notice": "Removes a given benefitReleases the claimable balance and transfers the pending benefit to governance"
      },
      "sendDust(address)": {
        "notice": "Allows an authorized user to transfer the tokens or eth that may have been left in a contract"
      },
      "setGovernance(address)": {
        "notice": "Proposes a new address to be governance"
      },
      "totalAmountPerToken(address)": {
        "notice": "Returns the total amount of the given vested token across all beneficiaries"
      }
    },
    "version": 1
  },
  "storageLayout": {
    "storage": [
      {
        "astId": 1887,
        "contract": "contracts/VestingWallet.sol:VestingWallet",
        "label": "governance",
        "offset": 0,
        "slot": "0",
        "type": "t_address"
      },
      {
        "astId": 1891,
        "contract": "contracts/VestingWallet.sol:VestingWallet",
        "label": "pendingGovernance",
        "offset": 0,
        "slot": "1",
        "type": "t_address"
      },
      {
        "astId": 1998,
        "contract": "contracts/VestingWallet.sol:VestingWallet",
        "label": "_vestedTokens",
        "offset": 0,
        "slot": "2",
        "type": "t_struct(AddressSet)1591_storage"
      },
      {
        "astId": 2001,
        "contract": "contracts/VestingWallet.sol:VestingWallet",
        "label": "_beneficiaries",
        "offset": 0,
        "slot": "4",
        "type": "t_struct(AddressSet)1591_storage"
      },
      {
        "astId": 2007,
        "contract": "contracts/VestingWallet.sol:VestingWallet",
        "label": "totalAmountPerToken",
        "offset": 0,
        "slot": "6",
        "type": "t_mapping(t_address,t_uint256)"
      },
      {
        "astId": 2016,
        "contract": "contracts/VestingWallet.sol:VestingWallet",
        "label": "benefits",
        "offset": 0,
        "slot": "7",
        "type": "t_mapping(t_address,t_mapping(t_address,t_struct(Benefit)2959_storage))"
      },
      {
        "astId": 2021,
        "contract": "contracts/VestingWallet.sol:VestingWallet",
        "label": "_tokensPerBeneficiary",
        "offset": 0,
        "slot": "8",
        "type": "t_mapping(t_address,t_struct(AddressSet)1591_storage)"
      }
    ],
    "types": {
      "t_address": {
        "encoding": "inplace",
        "label": "address",
        "numberOfBytes": "20"
      },
      "t_array(t_bytes32)dyn_storage": {
        "base": "t_bytes32",
        "encoding": "dynamic_array",
        "label": "bytes32[]",
        "numberOfBytes": "32"
      },
      "t_bytes32": {
        "encoding": "inplace",
        "label": "bytes32",
        "numberOfBytes": "32"
      },
      "t_mapping(t_address,t_mapping(t_address,t_struct(Benefit)2959_storage))": {
        "encoding": "mapping",
        "key": "t_address",
        "label": "mapping(address => mapping(address => struct IVestingWallet.Benefit))",
        "numberOfBytes": "32",
        "value": "t_mapping(t_address,t_struct(Benefit)2959_storage)"
      },
      "t_mapping(t_address,t_struct(AddressSet)1591_storage)": {
        "encoding": "mapping",
        "key": "t_address",
        "label": "mapping(address => struct EnumerableSet.AddressSet)",
        "numberOfBytes": "32",
        "value": "t_struct(AddressSet)1591_storage"
      },
      "t_mapping(t_address,t_struct(Benefit)2959_storage)": {
        "encoding": "mapping",
        "key": "t_address",
        "label": "mapping(address => struct IVestingWallet.Benefit)",
        "numberOfBytes": "32",
        "value": "t_struct(Benefit)2959_storage"
      },
      "t_mapping(t_address,t_uint256)": {
        "encoding": "mapping",
        "key": "t_address",
        "label": "mapping(address => uint256)",
        "numberOfBytes": "32",
        "value": "t_uint256"
      },
      "t_mapping(t_bytes32,t_uint256)": {
        "encoding": "mapping",
        "key": "t_bytes32",
        "label": "mapping(bytes32 => uint256)",
        "numberOfBytes": "32",
        "value": "t_uint256"
      },
      "t_struct(AddressSet)1591_storage": {
        "encoding": "inplace",
        "label": "struct EnumerableSet.AddressSet",
        "members": [
          {
            "astId": 1590,
            "contract": "contracts/VestingWallet.sol:VestingWallet",
            "label": "_inner",
            "offset": 0,
            "slot": "0",
            "type": "t_struct(Set)1290_storage"
          }
        ],
        "numberOfBytes": "64"
      },
      "t_struct(Benefit)2959_storage": {
        "encoding": "inplace",
        "label": "struct IVestingWallet.Benefit",
        "members": [
          {
            "astId": 2952,
            "contract": "contracts/VestingWallet.sol:VestingWallet",
            "label": "amount",
            "offset": 0,
            "slot": "0",
            "type": "t_uint256"
          },
          {
            "astId": 2954,
            "contract": "contracts/VestingWallet.sol:VestingWallet",
            "label": "startDate",
            "offset": 0,
            "slot": "1",
            "type": "t_uint256"
          },
          {
            "astId": 2956,
            "contract": "contracts/VestingWallet.sol:VestingWallet",
            "label": "duration",
            "offset": 0,
            "slot": "2",
            "type": "t_uint256"
          },
          {
            "astId": 2958,
            "contract": "contracts/VestingWallet.sol:VestingWallet",
            "label": "released",
            "offset": 0,
            "slot": "3",
            "type": "t_uint256"
          }
        ],
        "numberOfBytes": "128"
      },
      "t_struct(Set)1290_storage": {
        "encoding": "inplace",
        "label": "struct EnumerableSet.Set",
        "members": [
          {
            "astId": 1285,
            "contract": "contracts/VestingWallet.sol:VestingWallet",
            "label": "_values",
            "offset": 0,
            "slot": "0",
            "type": "t_array(t_bytes32)dyn_storage"
          },
          {
            "astId": 1289,
            "contract": "contracts/VestingWallet.sol:VestingWallet",
            "label": "_indexes",
            "offset": 0,
            "slot": "1",
            "type": "t_mapping(t_bytes32,t_uint256)"
          }
        ],
        "numberOfBytes": "64"
      },
      "t_uint256": {
        "encoding": "inplace",
        "label": "uint256",
        "numberOfBytes": "32"
      }
    }
  }
}